:020000021000EC
:10E000004BC0000082C0000080C000007EC0000045
:10E010007CC000007AC0000078C0000076C000001C
:10E0200074C0000072C00000A2C500006EC00000F5
:10E030006CC000006AC0000068C0000066C000003C
:10E0400064C0000062C0000060C000005EC000004C
:10E050005DC000005AC0000058C0000056C000005B
:10E0600054C0000052C0000050C000004EC000006C
:10E070004CC000004AC0000048C0000046C000007C
:10E0800044C0000042C0000040C000003EC000008C
:10E090003CC000003AC0000011241FBECFEFD0E208
:10E0A000DEBFCDBF04B603FE19C08091A0019091E0
:10E0B000A10182549C4D91F484B7877F84BF88E18D
:10E0C0000FB6F89480936000109260000FBE10921B
:10E0D000A1011092A001E0E0F0E0099511E0A0E0BC
:10E0E000B1E0E0E5FFEE01E00BBF02C007900D924A
:10E0F000A239B107D9F711E0A2E9B1E001C01D9240
:10E10000A03AB107E1F782D021C77ACF1F920F92D0
:10E110000FB60F9211240F900FBE0F901F901895FD
:10E1200084E08093E9000DC08091E8008B778093B4
:10E13000E80003C08EB3882351F08091E80082FF8D
:10E14000F9CF8091E80085FFEFCF8091F10008952D
:10E15000982F83E08093E9008091E80085FD0DC051
:10E160008091E8008E778093E80003C08EB3882307
:10E1700031F08091E80080FFF9CF9093F10008958D
:10E1800090919801892F8F77813299F5809199012B
:10E19000813229F0823229F1803259F510C0913A4A
:10E1A00041F58091E800877F8093E80088E091E066
:10E1B00067E070E0A9D38091E8008B770FC09132BF
:10E1C000C1F48091E800877F8093E80088E091E0C7
:10E1D00067E070E0FBD38091E8008E778093E800E1
:10E1E0000895913231F48091E800877F8093E800B0
:10E1F00040C4089582E061EC42E027D483E061E806
:10E2000042E123D484E060E842E11FC42F923F92B0
:10E210004F925F926F927F928F929F92AF92BF9236
:10E22000CF92DF92EF92FF920F931F93DF93CF93E2
:10E2300000D000D0CDB7DEB784B7877F84BF88E138
:10E240000FB6F89480936000109260000FBE80E0DB
:10E2500090E020E80FB6F89420936100809361006D
:10E260000FBE11E015BF82E085BF66D410936F002A
:10E2700083E080938100789479E0672E98C224E04F
:10E280002093E9008091E80082FF90C249DF182FB7
:10E29000853419F410920F0106C08857823010F0AF
:10E2A000143519F43DDF8DE057C21035E1F31C340D
:10E2B000D1F3143711F484E49AC0113611F489E5CE
:10E2C0004BC21134F1F42CDF382E330C22247101AF
:10E2D0000027F7FC0095102FE0929201F092930135
:10E2E00000939401109395011BDF90E0880F991F14
:10E2F000AA2797FDA095BA2F8E299F29A02BB12B75
:10E30000FCC1103711F483E527C2133559F400E03E
:10E3100011E0D8018D918D011BDFB1E007301B07A3
:10E32000C1F71BC2163521F481E312DF80E314C26A
:10E33000133731F482E80CDF87E90ADF8EE10CC283
:10E34000153629F580E090E0A0E0B0E023E0FC0184
:10E35000A0935B0020935700E89507B600FCFDCF23
:10E3600035E0FC01A0935B0030935700E89507B6B9
:10E3700000FCFDCF80509F4FAF4FBF4F803060EE0D
:10E38000960761E0A60760E0B60701F78CCF1C3660
:10E3900049F4C6DE8095E1E0F0E0082E6092570077
:10E3A000E89581CF123731F4E1E0F0E06092570058
:10E3B0008491D2C1163431F4E0E0F0E0609257006D
:10E3C0008491CAC11E3431F4E3E0F0E0609257005A
:10E3D0008491C2C1113531F4E2E0F0E0609257005F
:10E3E0008491BAC1123631F489E5B2DE81E0B0DE43
:10E3F00080E0B2C1123419F0173609F0FBC090DE8C
:10E40000082F8EDEF82E8CDE882E8554823008F0A0
:10E41000A2C10A8319822F2D30E089819A81282B8D
:10E42000392B3C832B83173609F058C091E1909328
:10E430005700E895DD244CC0E0909201F0909301E4
:10E440000091940110919501A6E48A1621F58D2D75
:10E4500090E0A0E0B0E08E299F29A02BB12BABBFAC
:10E46000FC01879175DEDD2081F082E090E0A0E084
:10E47000B0E0E80EF91E0A1F1B1FE0929201F09215
:10E480009301009394011093950180E0DD2009F43D
:10E4900081E0D82E18C0D801C701B695A7959795E9
:10E4A00087953ED555DE82E090E0A0E0B0E0E80E32
:10E4B000F91E0A1F1B1FE0929201F0929301009334
:10E4C000940110939501AB81BC811197BC83AB8300
:10E4D000EB81FC81EF2B09F0AFCF3FC1A0909201FF
:10E4E000B0909301C0909401D0909501F6E48F16FE
:10E4F00009F06AC023E0F501C0925B002093570049
:10E50000E89507B600FCFDCF5FC036E4831699F5A9
:10E51000992049F1E0909201F090930100919401CB
:10E5200010919501FDDD582E4424872D90E084291B
:10E53000952961E00C01F70100935B00609357009F
:10E54000E895112482E090E0A0E0B0E0E80EF91E2A
:10E550000A1F1B1FE0929201F09293010093940115
:10E560001093950102C0DCDD782E80E0992009F43B
:10E5700081E0982E23C0E0909201F09093010091E9
:10E5800094011091950116950795F794E794C8DDCD
:10E59000682FC701CDD48091920190919301A091F1
:10E5A0009401B09195010296A11DB11D8093920135
:10E5B00090939301A0939401B0939501AB81BC819A
:10E5C0001197BC83AB8302C077249924EB81FC8133
:10E5D000EF2B09F09ACFF6E48F1609F064CE25E010
:10E5E000F501C0925B0020935700E89507B600FC48
:10E5F000FDCF59CE1334A1F4E0909201F090930135
:10E6000000919401109195018BDD90E031E00C01B7
:10E61000F70100935B0030935700E895112443CE37
:10E62000133639F5E0909201F09093010091940136
:10E630001091950175DDA8019701216090E061E0DE
:10E640000C01F90140935B0060935700E895112499
:10E6500082E090E0A0E0B0E0E80EF91E0A1F1B1F68
:10E66000E0929201F092930100939401109395012E
:10E670001ACE1D3699F48091920190919301A09148
:10E680009401B091950125E0FC01A0935B002093DB
:10E690005700E89507B600FCFDCF05CE123581F492
:10E6A000E0909201F09093010091940110919501F6
:10E6B0000BBFF701E790F6908F2D4ADD8E2D4CC0F1
:10E6C000143421F5E0909201F090930100919401AF
:10E6D0001091950116950795F794E79421DD682F21
:10E6E000C70126D48091920190919301A091940149
:10E6F000B09195010296A11DB11D80939201909356
:10E700009301A0939401B0939501CDCD143609F5F2
:10E71000E0909201F0909301009194011091950185
:10E72000D801C701B695A79597958795F9D310DDC0
:10E7300082E090E0A0E0B0E0E80EF91E0A1F1B1F87
:10E74000E0929201F092930100939401109395014D
:10E7500004C01B3111F08FE3FBDC93E09093E900E0
:10E760009091E8008091E8008E778093E80095FF13
:10E7700004C010C08EB38823C9F08091E80080FFE8
:10E78000F9CF8091E8008E778093E80003C08EB3C4
:10E79000882361F08091E80080FFF9CFA4E0A09386
:10E7A000E9008091E8008B778093E800A5D3809101
:10E7B0000F01882309F063CD8091E0008160809390
:10E7C000E00082E49CED9093A1018093A0012CE0F5
:10E7D00088E190E00FB6F894A895809360000FBE92
:10E7E00020936000FFCFFA01923039F0933051F05E
:10E7F0009130E9F480E191E017C082E291E02EE3EC
:10E8000030E019C0882329F480E691E024E030E06C
:10E8100012C0813029F484E691E028E130E00BC099
:10E82000823029F48EE791E022E130E004C080E0FC
:10E8300090E020E030E091838083C90108959B013E
:10E84000AC0107B600FCFDCFF999FECF83E0F901DA
:10E8500040935B0080935700E89507B600FCFDCF1E
:10E8600081E180935700E89508959B01AC0107B6BC
:10E8700000FCFDCFF999FECF85E0F90140935B00E4
:10E8800080935700E89507B600FCFDCF81E18093A7
:10E890005700E89508950F931F938B019C0107B6CD
:10E8A00000FCFDCFF999FECF81E00A01F801209329
:10E8B0005B0080935700E89511241F910F910895F4
:10E8C00021E2FC01209357002491822F089529E032
:10E8D000FC01209357002491822F0895E1E0F0E09D
:10E8E00089E08093570084910895982F07B600FC23
:10E8F000FDCFF999FECF909589E0E1E0F0E0092E97
:10E9000080935700E89508959C0140919E01509195
:10E910009F014617570718F4F90190E03CC06115B4
:10E92000710511F0AB01F8CF8091E8008E778093EC
:10E93000E80040E050E0F0CF8EB3882309F440C0F7
:10E94000853009F43FC08091E80083FD3DC080918F
:10E95000E80082FD2FC08091E80080FF1CC020915C
:10E96000F2003091F30007C081918093F100415093
:10E9700050402F5F3F4F4115510519F028303105A8
:10E9800098F390E02830310509F491E08091E80097
:10E990008E778093E8004115510571F6992361F651
:10E9A00009C08EB3882361F0853061F08091E80062
:10E9B00083FD0AC08091E80082FFF3CF80E00895D4
:10E9C00082E0089583E0089581E008959C01611537
:10E9D000710529F48091E8008B778093E800F901B4
:10E9E00021C08EB3882369F1853069F18091E800F8
:10E9F00083FF02C081E008958091E80082FFF1CF9B
:10EA000006C08091F10081936150704031F0809197
:10EA1000F2009091F300892BA1F78091E8008B77A9
:10EA20008093E80061157105E1F605C08EB3882377
:10EA300041F0853041F08091E80080FFF7CF80E021
:10EA4000089582E0089583E008958F708093E9002F
:10EA50008091EB0081608093EB001092ED00609359
:10EA6000EC004093ED008091EE00881F8827881FFE
:10EA700008958091980188238CF403C08EB3882375
:10EA8000B1F08091E80082FFF9CF8091E8008B77A8
:10EA90008093E80008958EB3882349F08091E800C0
:10EAA00080FFF9CF8091E8008E778093E800089589
:10EAB000EF92FF920F931F934DD054D008ED10E0CA
:10EAC000F80180818F778083808180688083808156
:10EAD0008F7D8083E7EDF0E080818068808319BCC2
:10EAE0001EBA1092960180EEE82EF12CF70180817B
:10EAF0008B7F8083F80180818160808380E060E08B
:10EB000042E0A3DFE1EEF0E080818E7F8083E2EEE1
:10EB1000F0E0808181608083808188608083F7015C
:10EB200080818E7F8083F8018081806180831F9146
:10EB30000F91FF90EF900895E8EDF0E080818F7ED7
:10EB40008083E7EDF0E080818160808381E08093C5
:10EB50009701AECFE8EDF0E080818C7F808310924A
:10EB6000E20008951092DA001092E10008951F92D9
:10EB70000F920FB60F920BB60F9211242F933F9363
:10EB80004F935F936F937F938F939F93AF93BF93B5
:10EB9000EF93FF938091DA0080FF1BC08091D80033
:10EBA00080FF17C08091DA008E7F8093DA00809119
:10EBB000D90080FF0BC084E189BD86E189BD09B41D
:10EBC00000FEFDCF81E08EBB96D103C019BC1EBAFA
:10EBD00092D18091E10080FF17C08091E20080FF18
:10EBE00013C08091E2008E7F8093E2008091E2006A
:10EBF00080618093E2008091D80080628093D80089
:10EC000019BC85E08EBB77D18091E10084FF2EC0D6
:10EC10008091E20084FF2AC084E189BD86E189BD3C
:10EC200009B400FEFDCF8091D8008F7D8093D8007D
:10EC30008091E1008F7E8093E1008091E2008F7EE1
:10EC40008093E2008091E20081608093E2008091F5
:10EC50009601882311F084E007C08091E30087FDCE
:10EC600002C081E001C083E08EBB45D18091E1000C
:10EC700083FF21C08091E20083FF1DC08091E100ED
:10EC8000877F8093E10082E08EBB10929601809195
:10EC9000E1008E7F8093E1008091E2008E7F80937F
:10ECA000E2008091E20080618093E20080E060E019
:10ECB00042E0CBDE20D1FF91EF91BF91AF919F91C8
:10ECC0008F917F916F915F914F913F912F910F9015
:10ECD0000BBE0F900FBE0F901F9018951F93DF93E0
:10ECE000CF9300D0CDB7DEB7E8E9F1E08091F10035
:10ECF000819381E0E03AF807C9F742DA8091E800B1
:10ED000083FFE5C08091980190919901953009F4B5
:10ED10006FC0963040F4913091F1913070F09330A3
:10ED200009F0D5C02CC0983009F4A4C0993009F47A
:10ED3000B3C0963009F0CBC07DC0803811F490E0AC
:10ED400014C0823809F0C3C080919C018F708093F9
:10ED5000E9008091EB0090E025E0969587952A9553
:10ED6000E1F7982F91701092E9008091E800877F79
:10ED70008093E8009093F1001092F10086C0882300
:10ED800019F0823009F0A3C08F71823009F09FC062
:10ED900080919A01882331F520919C012F7009F40C
:10EDA00096C02093E9008091EB0080FF1BC0933058
:10EDB00021F48091EB00806213C08091EB008061B0
:10EDC0008093EB0081E090E002C0880F991F2A95A4
:10EDD000E2F78093EA001092EA008091EB008860ED
:10EDE0008093EB001092E9008091E800877F50C08B
:10EDF000882309F06CC010919A011F778091E3007D
:10EE00008078812B8093E3008091E800877F809356
:10EE1000E8002FDE8091E80080FFFCCF8091E300C6
:10EE200080688093E300112311F482E001C083E045
:10EE30008EBB4DC08058823008F049C080919A0145
:10EE400090919B0160919C01AE014F5F5F4FCBDCC5
:10EE5000BC01009709F43BC08091E800877F809354
:10EE6000E80089819A8150DD8091E8008B7780935A
:10EE7000E8002DC0803859F58091E800877F8093A5
:10EE8000E800809196018093F1008091E8008E77F0
:10EE90008093E800EEDD1BC08823C9F490919A01AD
:10EEA0009230A8F48091E800877F8093E8009093E7
:10EEB0009601DFDD80919601882331F48091E30093
:10EEC00087FD02C081E001C084E08EBB93D98091B0
:10EED000E80083FF0AC08091E800877F8093E80004
:10EEE0008091EB0080628093EB000F900F90CF91A8
:10EEF000DF911F91089508951F938EB3882371F0B9
:10EF00001091E9008091EC001092E9008091E800F6
:10EF100083FF01C0E3DE1F701093E9001F91089585
:10EF2000F999FECF92BD81BDF89A992780B50895D1
:10EF3000262FF999FECF1FBA92BD81BD20BD0FB615
:10EF4000F894FA9AF99A0FBE01960895F894FFCFB3
:10EF50004C554641434443000000000000000801B6
:10EF60001201100102000008EB034A200001010217
:10EF7000000109023E000201008032090400000184
:10EF800002020100052400100104240202052406E7
:10EF90000001070582030800FF09040100020A00BE
:10EFA0000000070504021000050705830210000594
:10EFB0000403090418034400650061006E0020008A
:10EFC000430061006D0065007200610000001203E3
:10EFD0004C0055004600410020004300440043001F
:02EFE00000002F
:10FFA0000C941FF40C9435F40C944BF40C9460F402
:10FFB0000C9467F40C946EF40C9475F40895089501
:06FFC00008950895089564
:10FFE000DFCFE0CFE1CFE2CFE3CFE4CFE5CFE6CF85
:08FFF000E6CFE6CFE6CFE6CF35
:08FFF80000E0010000DFFBDC6A
:040000031000E00009
:00000001FF
